:10000000886C00202901000021020000210200006C
:1000100000000000000000000000000000000000E0
:1000200000000000000000000000000021020000AD
:10003000000000000000000021020000210200007A
:100040002102000021020000210200002102000024
:100050002102000021020000210200002102000014
:100060002102000021020000210200002102000004
:1000700021020000210200002102000021020000F4
:1000800021020000210200002102000021020000E4
:10009000210200000000000000000000210200001A
:1000A00021020000210200002102000021020000C4
:1000B0000000000010B5064C2378002B07D1054B3B
:1000C000002B02D0044800E000BF0123237010BDC4
:1000D0007800002000000000C0820300084B10B52B
:1000E000002B03D00749084800E000BF0748036819
:1000F000002B00D110BD064B002BFBD09847F9E731
:10010000000000007C000020C0820300C0820300C9
:100110000000000080B500AF024B9847C046BD46C6
:1001200080BDC0463D02000080B582B000AF2F4BBD
:100130007B602F4B3B607A683B689A420CD007E0AB
:100140003B681A1D3A607A68111D796012681A605E
:100150003A68284B9A42F3D3274B3B6004E03B6854
:100160001A1D3A6000221A603A68244B9A42F6D36C
:10017000234B7B60234B7A68FF218A439A60224A93
:1001800090235B000221D150204AD37803218B4376
:10019000191C02230B43D3701C4AD3780C218B43C8
:1001A000191C08230B43D370194A937B30218B43CE
:1001B000191C20230B439373154A937B0C218B430B
:1001C000191C08230B439373114A937B03218B4320
:1001D000191C02230B4393730E4A536880210B436F
:1001E00053600D4B98470D4B9847FEE7C0820300C4
:1001F000000000207800002078000020884C0020BB
:100200000000000000ED00E00070004100500041DF
:1002100000480041004000419D6300006D1E000049
:1002200080B500AFFEE7000080B500AF024B9847F5
:10023000C046BD4680BDC046D90B000080B500AFAA
:10024000024B9847C046BD4680BDC046290200000B
:1002500080B584B000AF0200FB1D1A70FB1D1B7837
:100260009BB2094A19001000084B984703001A0076
:100270000E23FB181A800E23FB181B88DBB2180014
:10028000BD4604B080BDC046001000428529000074
:1002900090B583B000AF040008001100FB1D221CC4
:1002A0001A70BB1D021C1A707B1D0A1C1A700021DB
:1002B0000E200D4B9847FB1D1B7818000B4B9847E1
:1002C000BB1D1B781800094B98477B1D1B78180035
:1002D000064B984701210E20034B98470123180035
:1002E000BD4603B090BDC046452800005102000045
:1002F00080B584B000AF78600A00FB1C1A707B6880
:10030000802212041343FB6000210E20104B9847FB
:10031000FB681B0CDBB218000E4B9847FB681B0AEE
:10032000DBB218000B4B9847FB68DBB21800094B97
:100330009847FB1C1B781800064B984701210E209C
:10034000034B984701231800BD4604B080BDC0464A
:10035000452800005102000080B584B000AF7860ED
:100360000A00BB1C1A807B68802212041343FB60C6
:1003700000210E20144B9847FB681B0CDBB21800C1
:10038000124B9847FB681B0ADBB218000F4B9847CB
:10039000FB68DBB218000D4B9847BB1C1B88DBB217
:1003A00018000A4B9847BB1C1B881B0A9BB2DBB288
:1003B0001800064B984701210E20034B9847012354
:1003C0001800BD4604B080BD452800005102000061
:1003D00080B588B000AF786039607B6880221204F5
:1003E0001343BB61BB691B0CDAB20C23FB181A70F8
:1003F000BB691B0ADAB20C23FB185A70BB69DAB26C
:100400000C23FB189A703B68DAB20C23FB18DA70E5
:100410003B681B0ADAB20C23FB181A713B681B0CF1
:10042000DAB20C23FB185A713B681B0EDAB20C23AC
:10043000FB189A7100210E20134B98470023FB6193
:1004400016E0124B0C22B918FA698A1812789A62CF
:10045000C0460E4B1B7EDBB21A0002231340F8D0BD
:100460000A4B9A6A1723FB181A70FB690133FB6168
:10047000FB69062BE5DD01210E20034B9847012384
:100480001800BD4608B080BD45280000001000429D
:1004900090B585B000AF78607B68FB6000210E20CE
:1004A0001B4B9847FB681B0CDBB21800194B984795
:1004B000FB681B0ADBB21800164B9847FB68DBB2DF
:1004C0001800144B98470020124B98470B23FC1838
:1004D0000020104B9847030023700A23FC180020CB
:1004E0000C4B98470300237001210E20084B9847BE
:1004F0000A23FB181B789BB21B029AB20B23FB1832
:100500001B789BB2D3189BB21800BD4605B090BDB6
:10051000452800005102000080B584B000AF78602B
:100520000A00BB1C1A80BB1C1A887B68D318FB60AE
:10053000FB68064A934204D9FB68054A9446634423
:10054000FB60FB681800BD4604B080BDFF0F0000D3
:1005500000F0FFFF80B584B000AF0200BB1D1A8021
:100560000E4B18000E4B984703001A00BB1D1B884A
:100570009B1A9AB20E23FB181205120D1A800C2337
:10058000FB180E22BA18128806498A1A1A800C2300
:10059000FB181B881800BD4604B080BDF820300051
:1005A00091040000FC0F000090B585B000AF7860AA
:1005B0000A00BB1C1A807B689BB20E22BC18180074
:1005C000074B9847030023800E23FA18BB1C1288A0
:1005D0001B889A42EFD3C046BD4605B090BDC046C9
:1005E0005505000080B582B000AF0200BB1D1A8027
:1005F0003B1D0A1C1A80BA1D3B1D12881B88D3188C
:100600009AB2BB1D1205120D1A80BB1D1B88033345
:100610009AB2BB1D07490A401A80BB1D1B88064AB7
:1006200019001000054B9847BB1D1B881800BD46DC
:1006300002B080BDFC0F0000FC2030005903000018
:1006400090B583B000AFBC1D0F4B18000F4B9847FF
:10065000030023803C1D0E4B18000C4B98470300F1
:1006600023803A1DBB1D12881B889A42EBD1BC1C0B
:10067000074B1800054B984703002380BB1C1B88C1
:100680001800BD4603B090BDF82030009104000072
:10069000FC20300090B589B000AFF86008007A60A7
:1006A00019000A23FB18021C1A800823FB180A1CD5
:1006B0001A800023FB610023BB61FB6880221204C7
:1006C00013437B610823FB181B88FB610A23FB187B
:1006D0001B881800424B984703001A00FB699A4296
:1006E00007D20A23FB181B8818003D4B98470300CC
:1006F000FB610A23FB181B88FA6992B211001800EB
:10070000384B984700210E20374B98470A23FB1897
:100710001B88C2229203944663448022120413432E
:100720007B617B691B0CDBB21800304B98477B69FF
:100730001B0ADBB218002D4B98477B69DBB218000F
:100740002A4B98470023BB6115E0294A7B68591C56
:1007500079601B789362C046254B1B7EDBB21A0082
:1007600002231340F8D0224B9A6A1323FB181A7005
:10077000BB690133BB61FB695A1EFA61002BE4D1EE
:10078000BB69FB6101210E20174B9847FB699AB2A8
:100790000A23FC180A23FB181B8811001800154BAC
:1007A0009847030023800A23FC18134B9847030043
:1007B0002380FB699AB20823FB180821791809885D
:1007C0008A1A1A800823FB181B88002B00D079E7AF
:1007D0000A23FB181B881800BD4609B090BDC0460F
:1007E00055050000A9050000452800005102000041
:1007F00000100042E50500004106000080B582B00F
:1008000000AF78607B68012B4AD1614B0021180052
:10081000604B9847C8239B005F4A190010005F4B4C
:1008200098478423DB005E4A190010005B4B984711
:1008300080235B005B4A19001000584B98475A4BC5
:10084000D2211800554B9847584BD4211800534BD0
:100850009847F0235B00564A190010004F4B984709
:10086000544A554B110018004C4B9847534B1E21CE
:1008700018004A4B9847524B07211800474B98479E
:10088000504B1B211800454B98474F4B0021180037
:10089000404B98474D4B012118003E4B984748E08C
:1008A0003B4B002118003B4B9847F0235B003A4A32
:1008B00019001000394B984789239B00384A1900CA
:1008C0001000364B9847374B2B211800334B984775
:1008D000354B00211800314B9847344B2921180023
:1008E0002E4B984788235B00314A190010002B4B90
:1008F000984792235B00304A19001000274B984715
:100900002E4B0C211800254B98472D4B0021180029
:10091000224B98472B4B0A211800204B98472A4B13
:10092000002118001B4B9847284B01211800194B38
:10093000984780239A04C0239B0311001800244B7E
:100940009847244A244B11001800214B9847234B09
:10095000002118001E4B9847214B022118000D4B17
:100960009847204B402118000A4B98477B68002B82
:1009700005D01D4B02211800064B984704E01A4B86
:1009800007211800034B9847C046BD4602B080BD02
:1009900060203000F10200003420300059030000D4
:1009A0002C20300030203000382030003C20300037
:1009B000482030000D02000040203000442030006C
:1009C0004C20300050203000642030006C2030007B
:1009D000D1030000070000260400300008003000AA
:1009E00054203000D420300070203000B0B58AB0E0
:1009F00000AFF860B9607A603B600023BB61002300
:100A00007B6100233B620023FB61534B1800534B77
:100A100098470300BB61524B1800504B98470300A6
:100A20007B617A69BB699A42EFD12623FB187A6908
:100A30001A802623FB181B88C22292039A18DC23F3
:100A40005B4219001000474B98472623FB181B8870
:100A500004211800444B984702002623FB181A80F3
:100A60002623FB181B88C2229203944663447A68AB
:100A7000110018003B4B98472623FB181B880421C4
:100A80001800394B984702002623FB181A802623AA
:100A9000FB181B88C222920394466344022118006B
:100AA000304B98472623FB181B88042118002E4B37
:100AB000984702002623FB181A800023FB6126E0DA
:100AC0003B682A4A934203D980239B013B6201E0A1
:100AD0003B683B622623FB181B88C22292039818AE
:100AE000BA68FB69D2183B6A9DB22623FC182623FC
:100AF000FB1819882B001E4DA84703002380FA69B4
:100B00003B6AD318FB613A683B6AD31A3B603B6887
:100B1000002BD5D12623FB181B88114A1900100081
:100B2000144B98470C4B18000C4B98470300BB61C3
:100B30000B4B1800094B984703007B617A69BB692E
:100B40009A42EFD12623FB187A691A80C046180012
:100B5000BD460AB0B0BDC046F82030009104000088
:100B6000FC203000D103000019050000FF1F000029
:100B7000950600005903000080B584B000AF78608E
:100B80000A4B1B68002B02D1084B094A1A60074B1D
:100B90001B68FB60054B1A687B68D218034B1A6010
:100BA000FB681800BD4604B080BDC046940000201C
:100BB000886C002080B582B000AF786039607B68B7
:100BC0005A683B685B001E210B401A437B685A60E1
:100BD000C046BD4602B080BD80B500AF094B0321C1
:100BE0001800094B9847094B9847094B9847042030
:100BF000084B9847084B9847FB20064B9847C04640
:100C0000BD4680BD00400041B50B0000C10D000095
:100C100025100000790C0000E510000080B582B0BE
:100C200000AF7860C0467B685B781B06DB0FDBB2E9
:100C3000002BF8D1C046BD4602B080BD80B582B061
:100C400000AF786039607B683A685A607B6818004A
:100C5000024B9847C046BD4602B080BD1D0C000047
:100C600080B582B000AF786039607B683A689A607E
:100C7000C046BD4602B080BD80B582B000AF78608E
:100C80007B68012213400DD080239B00184A190075
:100C90001000184B984784235B02154A1900100076
:100CA000154B98477B68022213400CD00223FF3378
:100CB0000F4A190010000F4B9847104A0C4B1100B7
:100CC00018000D4B98477B68042213400BD00C4A48
:100CD000074B11001800074B98470A4A044B1100B4
:100CE0001800054B9847C046BD4602B080BDC046BF
:100CF000000C0040610C00003D0C000001030100ED
:100D0000020400000206010080B582B000AF7860E6
:100D10000A00FB1C1A707B681B7ADAB2FB1C1B787A
:100D200007210B40DBB21343DAB27B681A72C0466C
:100D3000BD4602B080BD80B582B000AF78600A00C9
:100D4000FB1C1A707B685B7ADAB2FB1C1B780721EC
:100D50000B40DBB21343DAB27B685A72C046BD4621
:100D600002B080BD80B582B000AF78600A00FB1C85
:100D70001A707B689B7ADAB2FB1C1B7807210B4048
:100D8000DBB21343DAB27B689A72C046BD4602B04A
:100D900080BD80B582B000AF78600A00FB1C1A707D
:100DA0007B68DB7ADAB2FB1C1B7807210B40DBB2D5
:100DB0001343DAB27B68DA72C046BD4602B080BD2A
:100DC00080B500AF0B4B002118000B4B9847094B27
:100DD00000211800094B9847064B00211800084BCA
:100DE0009847044B00211800064B9847C046BD4663
:100DF00080BDC04600040040090D0000370D000012
:100E0000650D0000930D000080B582B000AF7860E2
:100E10000A00BB1C1A807B68BA1C12885A80C04624
:100E2000BD4602B080BD80B582B000AF78607B68FF
:100E3000DB68DB08012213405A1E9341DBB2180025
:100E4000BD4602B080BD80B582B000AF78607B68DF
:100E500050229B5CDBB21A00012313405A1E9341BF
:100E6000DBB21800BD4602B080BD80B582B000AFD5
:100E700078607B6850229B5CDBB25B0801221340E8
:100E80005A1E9341DBB21800BD4602B080BD80B54A
:100E900082B000AF78607B6850229B5CDBB29B081D
:100EA000012213405A1E9341DBB21800BD4602B026
:100EB00080BD80B582B000AF78607B689B690222FC
:100EC0001A437B689A61C046BD4602B080BD80B5BA
:100ED00082B000AF78607B689B69022293431A005E
:100EE0007B689A61C046BD4602B080BD80B584B0C3
:100EF00000AF78600F23FB187A68127F1A700F23F7
:100F0000FB180F22BA1812781F210A401A700F23FB
:100F1000FB181B781800BD4604B080BD80B582B0B8
:100F200000AF78600A00FB1C1A707B68FA1C12780C
:100F30001A77C046BD4602B080BD80B582B000AF12
:100F400078607B681B6A80221A437B681A62C046FD
:100F5000BD4602B080BD80B584B000AF78607B68CC
:100F60001B6AFB60FB681B0C1B051B0DFB60FB6811
:100F70001800BD4604B080BD80B584B000AF786075
:100F80007B681B6AFB60FB689B0FFB60FB681800BB
:100F9000BD4604B080BD80B582B000AF78603960D6
:100FA0007B683A681A62C046BD4602B080BD80B513
:100FB00082B000AF78607B6844229B5CDBB2802209
:100FC00052421343D9B27B6844229954C046BD466D
:100FD00002B080BD80B582B000AF78600A00FB1C13
:100FE0001A707B68FA1C442112785A54C046BD46D8
:100FF00002B080BD80B582B000AF786039607B6898
:101000003A689A64C046BD4602B080BD80B582B0E1
:1010100000AF786039607B683A68DA64C046BD46E4
:1010200002B080BD80B582B000AF244B7B607B688E
:101030001800234B98470200BB1C1A807B681800DD
:10104000204B984703009A07BB1C1B881B04190000
:101050001D4B0B40134302221A437B6811001800FA
:101060001A4B98477B681800194B98477B68180003
:10107000184B984703001A00BB1C1A80BB1C1B8826
:10108000DBB21F221340DAB27B6811001800124B4A
:101090009847C0467B681800104B984703001A0019
:1010A00001235340DBB2002BF4D17B6818000C4BBA
:1010B0009847C046BD4602B080BDC046000800400B
:1010C000570F0000790F00000000FF0F970F00007E
:1010D000B30E0000ED0E00001D0F0000270E0000F3
:1010E0003B0F000080B582B000AF224B7B60224AEC
:1010F000224B11001800224B98477B6802211800F0
:10110000204B98477B681D2118001F4B98477B6830
:10111000202118001D4B9847C0467B6818001C4BC7
:10112000984703001A0001235340DBB2002B15D06F
:101130007B681800174B984703001A00012353409F
:10114000DBB2002B0AD07B681800134B98470300D2
:101150001A0001235340DBB2002BDED17B6818005C
:101160000E4B98477B6818000D4B9847C046BD460C
:1011700002B080BD0008004001420000000C0040A9
:10118000090E0000D50F0000F50F00000D10000043
:101190008F0E0000470E00006B0E0000AF0F000026
:1011A000CF0E000080B582B000AF78607B681B6A0C
:1011B00010221A437B681A62C046BD4602B080BD49
:1011C00080B500AF0022002101200A4B9847002281
:1011D00000210220074B9847002200210320054BE5
:1011E0009847002200210620024B9847C046BD4682
:1011F00080BDC046A9220000F0B589B000AF984B71
:101200005B6819000022D5239B010120954CA04763
:10121000954BDC221A80944BA0225A800022924BDC
:101220005A60914B02221A728F4B01225A818E4BC7
:1012300050229A818C4B1A888B4B59898B4B10000A
:10124000984703009AB2884BDA81874B5A88864BBD
:101250009989864B1000984703009AB2824B1A82F4
:10126000814B00225A61804B07229A610023FB6167
:1012700007E07F4BFA6952000021D152FB6901332C
:10128000FB61FA692C23FF339A42F2DD794BBB6193
:101290001623FB1832221A80ACE0734B002219008F
:1012A0000120754B9847704B002219000220724BA9
:1012B00098470023FB6186E01623FB181A886F4BC2
:1012C00010009847021C6E4B6E49101C9847031C77
:1012D0001A1C6D4B101C984703000C0018002100CD
:1012E0006A4B98476A4C00226A4BA04703000C00E7
:1012F0001D002600684B6949B8699847031C1C1CEF
:10130000FB695A005D4B10009847021C624B644910
:10131000101C9847031C1A1C624B111C201C984778
:10132000031C1A1C564B6049101C9847031C1A1CBE
:10133000554B101C984703000C0018002100534B1C
:10134000984702000B00524C28003100A0470300D0
:101350000C0019002200554B0800110098470300AB
:1013600019B2434BFA695200D152414BFA6952000B
:10137000D35E9BB282339BB21AB23B001A80FB69E8
:101380001C339BB2DB189BB21AB23B005A803B0065
:10139000DC225A603B0002229A60334B5A683B00C1
:1013A0005B68F9694B439B00D2183B00DA603B0055
:1013B00001221A823A002C4B190005202E4B984727
:1013C000FB690133FB61FB694F2B00DC74E7264BA3
:1013D000002219000620284B98471623FB181622D6
:1013E000BA18128832321A80314B2249B8699847AC
:1013F000031CBB612F4B3049B8699847031E00D0CE
:101400004BE7194B0022190001201B4B9847164B44
:10141000002219000220184B98473B0082221A80B4
:101420003B0038225A803B00DC225A603B00A0225D
:101430009A600D4B5A683B00DA603B0001221A8229
:101440003A00094B190005200B4B9847064B002228
:1014500019000620084B9847C046BD4609B0F0BDAC
:1014600068490200ED090000644C0020393D00008D
:101470007C4800200000A040A9220000E54D0000AB
:101480006D480000EB26F13FBD620000D529000049
:10149000A5560000000049408D4400000000704245
:1014A00000004842AD4A0000C3F5C840D1610000C9
:1014B00069410000C54000000000A043B0B590B0F5
:1014C00000AF3A23FB1804221A803823FB180422A9
:1014D0001A802223FB1800221A802023FB183A22AC
:1014E000BA1812881A801E23FB183822BA181288DC
:1014F0001A803623FB182222BA1812881A801C235D
:10150000FB1800221A803423FB1800221A80322391
:10151000FB1800221A802A23FB1800221A800023BD
:101520007B6201237B62B0497A6A13005B009B18DF
:101530009B00CB1804331B681C00AB497A6A13006C
:101540005B009B189B005858A7497A6A13005B0000
:101550009B189B00CB1808331B6802002100012058
:10156000A24CA047A24BF02252001A80A04B882226
:1015700052005A809C497A6A13005B009B189B00BA
:101580005A589B4B5A609A4B02221A72984B0A2265
:101590005A81974B05229A81954B1A88944B598909
:1015A000944B1000984703009AB2914BDA81904B0C
:1015B0005A888F4B99898F4B1000984703009AB235
:1015C0008B4B1A828A4B00225A61894B07229A61FF
:1015D000874BFF22DA61864B002219000020864BE0
:1015E00098473A23FB1805221A803823FB18042257
:1015F0001A802223FB1800221A802023FB183A228B
:10160000BA1812881A801E23FB183822BA181288BA
:101610001A803623FB182222BA1812881A801C233B
:10162000FB1800221A803823FB1818883A23FB186D
:101630001A883823FB181D883A23FB1819886F4C29
:101640000B009B005B189B009621890069435B1887
:10165000E31810331B8801218B439CB267491300A8
:101660009B009B189B009622920042439B18CB182C
:101670001033221C1A800023FB636BE1604B9847F8
:1016800002001C23FB181A805D4B984702001C23A4
:10169000FB181A805A4B984702001C23FB181A802B
:1016A0002023FB183A22BA1812881A801E23FB182E
:1016B0003822BA1812881A803423FB1800221A80A4
:1016C0003223FB1800221A802223FB181C22BA188E
:1016D000128803210A401A802223FB181B88012B41
:1016E00059D002DC002B3BD08DE0022B02D0032B23
:1016F0001BD088E03623FB181B88002B00D164E048
:101700003823FB181B88002B61D03823FB181A885C
:101710003823FB18013A1A803423FB1800221A8060
:101720003223FB1808221A8051E03623FB181B884D
:10173000012B4ED03A23FB181B88082B4BD83A2399
:10174000FB181A883A23FB1801321A803423FB183D
:10175000062252421A803223FB1800221A803AE0F5
:101760003623FB181B88022B37D03823FB181B8825
:10177000032B34D83823FB181A883823FB1801327E
:101780001A803423FB1800221A803223FB18082207
:1017900052421A8023E03623FB181B88032B20D0EB
:1017A0003A23FB181B88002B2CD03A23FB181A88ED
:1017B0003A23FB18013A1A803423FB1806221A80B8
:1017C0003223FB1800221A801CE0C0461BE0C046F2
:1017D00019E0C04617E0C04615E0C04613E0C04619
:1017E00011E0C0460FE0C04668490200ED09000064
:1017F000644C0020393D0000A9220000A4200020F4
:10180000E5630000C0463423FB1800229B5E002BDA
:1018100006D13223FB1800229B5E002B00D12DE75E
:101820003623FB182222BA1812881A801E23FB18AE
:1018300018882023FB181A883C1D9B4913009B0025
:101840009B189B009622920042439B182200CB18C3
:1018500013CB13C203CB03C21E23FB181C88202307
:10186000FB181A883823FB181D883A23FB1819889F
:101870008D480B009B005B189B00962189006943F3
:101880005B18C3180C331968874813009B009B181A
:101890009B009622920062439B18C3180C33196078
:1018A0001E23FB1818882023FB181A883823FB18DE
:1018B0001D883A23FB1819887B4C0B009B005B1892
:1018C0009B009621890069435B18E31810331C883C
:1018D000754913009B009B189B009622920042437F
:1018E0009B18CB181033221C1A803823FB181C8835
:1018F0003A23FB181A883B1DD9686B4813009B00DC
:101900009B189B009622920062439B18C3180C33CD
:1019100019603823FB1818883A23FB181A883B1DD6
:101920001C8A614913009B009B189B009622920021
:1019300042439B18CB181033221C1A802223FB1819
:101940001B88D9B2594AFB6BD3180A1C1A70FB6B5F
:101950000133FB63FA6B9023FF339A4200DC8DE680
:10196000534B002219000120524B9847504B002244
:10197000190002204F4B98474D4B002219000420BC
:101980004C4B98474A4B002219000620494B984778
:101990002A23FB189022FF321A802023FB183A22B8
:1019A000BA1812881A801E23FB183822BA18128817
:1019B0001A803423FB1800221A803223FB180022DD
:1019C0001A802A23FB181B88384AD25C2223FB1872
:1019D0001A802223FB181B88012B1DD002DC002B50
:1019E00005D06AE0022B2DD0032B41D065E03823CF
:1019F000FB181B88002B50D03823FB181A8838237B
:101A0000FB18013A1A803423FB1800221A80322373
:101A1000FB1808221A8040E03A23FB181B88082B89
:101A20003DD83A23FB181A883A23FB1801321A8052
:101A30003423FB18062252421A803223FB1800225C
:101A40001A802CE03823FB181B88032B29D8382355
:101A5000FB181A883823FB1801321A803423FB182C
:101A600000221A803223FB18082252421A8018E002
:101A70003A23FB181B88002B1ED03A23FB181A8828
:101A80003A23FB18013A1A803423FB1806221A80E5
:101A90003223FB1800221A800EE0C0460DE0C0463B
:101AA0000BE0C04609E0C046A4200020D44A002034
:101AB000644C0020A9220000C0463423FB180022F9
:101AC0009B5E002B05D13223FB1800229B5E002B6E
:101AD00005D03623FB182222BA1812881A80382320
:101AE000FB1818883A23FB181A883C1DDA491300A2
:101AF0009B009B189B009622920042439B18220059
:101B0000CB1813CB13C203CB03C21A23FB183A1D05
:101B100012881A801823FB183A1D52881A801E2337
:101B2000FB1818882023FB181A881E23FB181D8811
:101B30002023FB181988C84C0B009B005B189B00E6
:101B40009621890069435B18E31810331B88012133
:101B50008B439CB2C04913009B009B189B009622AC
:101B6000920042439B18CB181033221C1A80382352
:101B7000FB1818883A23FB181A883823FB181D888D
:101B80003A23FB181988B44C0B009B005B189B0090
:101B90009621890069435B18E31810331B880121E3
:101BA0008B439CB2AC4913009B009B189B00962270
:101BB000920042439B18CB181033221C1A80012339
:101BC000FB624AE0A54B002219000120A44B984774
:101BD000A24B002219000220A14B98479F4B0022E4
:101BE000190004209E4B98473423FB1800229B5E6B
:101BF000002B05D13223FB1800229B5E002B23D043
:101C0000FB6A9BB23422BA18128853439AB21A2341
:101C1000FB181B88D3189BB21AB23B1D1A80FB6AB3
:101C20009BB23222BA18128853439AB21823FB1877
:101C30001B88D3189BB21AB23B1D5A803A1D874BA2
:101C400019000520864B9847844B00221900062076
:101C5000834B9847FB6A0133FB62FB6A052BB1DDBE
:101C60001E23FB1818882023FB181A881E23FB1834
:101C70001D882023FB181988774C0B009B005B18EC
:101C80009B009621890069435B18E31810331B8879
:101C900001210B439CB2704913009B009B189B00D1
:101CA0009622920042439B18CB181033221C1A80B4
:101CB0003823FB1818883A23FB181A883823FB1896
:101CC0001D883A23FB181988634C0B009B005B1896
:101CD0009B009621890069435B18E31810331B8829
:101CE00001210B439CB25C4913009B009B189B0095
:101CF0009622920042439B18CB181033221C1A8064
:101D00001E23FB1818882023FB181A883C1D5249F3
:101D100013009B009B189B009622920042439B1845
:101D20002200CB1813CB13C203CB03C21E23FB1814
:101D30001C882023FB181A883823FB181D883A2397
:101D4000FB18198844480B009B005B189B009621E8
:101D5000890069435B18C3180C3319683E481300A7
:101D60009B009B189B009622920062439B18C3180D
:101D70000C3319603823FB181C883A23FB181A8887
:101D80003B1DD968344813009B009B189B0096228A
:101D9000920062439B18C3180C3319602A23FB1866
:101DA0001B882A22BA18591E1180002B00D0F4E596
:101DB0002A4B002219000120294B9847274B00226B
:101DC00019000220264B9847244B002219000420BA
:101DD000234B9847214B002219000620204B98479F
:101DE000204B1800204B98471E4B18001E4B98475D
:101DF0001C4B18001C4B98471A4B18001A4B98475D
:101E0000184B1800184B9847164B1800164B98475C
:101E1000144B1800144B9847124B1800124B98475C
:101E2000104B1800104B98470E4B18000E4B98475C
:101E30000C4B18000C4B98470A4B18000A4B98475C
:101E40007B6A01337B627B6A032B01DCFFF76BFB50
:101E5000C046BD4610B0B0BDA4200020644C002098
:101E6000A9220000A0860100A5280000B0B500AF9F
:101E7000974B9847974B1800974B9847974B984725
:101E800080239A02964997480023974CA047974B86
:101E90001800974B9847974B1800954B9847964BCF
:101EA0001800934B9847954B1800914B98478D4BD2
:101EB0001800934B9847934B9847924B9847914BF8
:101EC0009847904B98478F4B98478E4B98470022E6
:101ED000002144208C4B98470022002161208A4B2E
:101EE0009847002200214820874B98470022002174
:101EF0000020854B9847854A854B11001800854B7B
:101F00009847824A844B11001800824B98477D4BBA
:101F100098477C4B98477B4B984780231B027E4A0F
:101F2000190010007B4B98477C4B012118007C4B1B
:101F300098477C4B00211800764B98477A4B00213C
:101F40001800744B98476F4B9847744B002118004A
:101F5000734B98470020754B984780239A04C02301
:101F60009B0311001800724B9847724A724B110084
:101F700018006F4B9847714B002118006C4B984725
:101F80006F4B02211800664B98476E4B802118005A
:101F9000634B98476B4B40211800614B98476A4B45
:101FA000072118005E4B9847002200210120674B53
:101FB0009847002200210220644B9847002200210C
:101FC0000620624B9847624B98470022002101206F
:101FD0005E4B98470022002102205C4B984700226C
:101FE00000210620594B98475A4B98475A4B1800E6
:101FF0005A4B9847584B1800584B9847564B180067
:10200000564B9847544B1800544B9847524B180066
:10201000524B9847504B1800504B98474E4B180066
:102020004E4B98474C4B18004C4B98474A4B180066
:102030004A4B9847484B1800484B9847464B180066
:10204000464B9847444B1800444B984700220021C8
:1020500001203E4B98470022002102203B4B98472D
:10206000002200210620394B98473D4B98473A4BB8
:1020700018003A4B9847384B1800384B9847364B66
:102080001800364B9847344B1800344B9847324B66
:102090001800324B9847304B1800304B98472E4B66
:1020A00018002E4B98472C4B18002C4B98472A4B66
:1020B00018002A4B9847284B1800284B9847264B66
:1020C0001800264B9847244B1800244B98476BE781
:1020D0001501000000040040A5110000F9280000CF
:1020E0000C003000001000423129000000000020E8
:1020F0001127000004000020080000200C00002030
:1021000015290000C128000091020000088000008D
:1021100098203000590300009C203000202030001F
:10212000F1020000F8203000FC203000FD07000024
:10213000D103000007000026040030000800300032
:1021400054203000D420300070203000A92200003C
:10215000C1110000F9110000A0860100A5280000AF
:10216000BD14000080B500AF024B98470300180073
:10217000BD4680BD4106000080B500AF024B002285
:102180001A60C046BD4680BD98000020B0B584B03E
:1021900000AF0E23FC18244B984703002380234BE9
:1021A0001B68BB6000237B6026E0BB68204A93422B
:1021B00003D980239B013B6001E0BB683B600E2399
:1021C000FB181B88C222920398187A68194BD21800
:1021D0003B689DB20E23FC180E23FB1819882B00B8
:1021E000154DA847030023807A683B68D3187B60AD
:1021F000BA683B68D31ABB60BB68002BD5D10E23ED
:10220000FB181B880D4A190010000D4B98470E2330
:10221000FC180C4B9847030023800E23FB181B88E7
:102220001800BD4604B0B0BD652100009800002034
:10223000FF1F0000A400002095060000FC203000D5
:10224000590300004106000080B582B000AF7860FD
:10225000134B1B687A68D1B2124AD154104B1B68D9
:1022600001337A68120AD1B20E4AD1540C4B1B6862
:1022700002337A68120CD1B20A4AD154084B1B6857
:1022800003337A68120ED1B2064AD154044B1B684C
:102290001A1D034B1A60C046BD4602B080BDC04641
:1022A00098000020A400002090B589B000AFF8602D
:1022B000B9607A60FB68072B00D9ABE1FB689A0034
:1022C000D74BD3181B689F460023FB6190E0002387
:1022D000BB6183E0BB68DB89BA6992B253439BB2AE
:1022E0001CB2D049BA69F86913009B009B189B0087
:1022F0009622920042439B18221C5A52BB681B8AAA
:10230000FA6992B253439BB21CB2C649BA69F869E2
:1023100013009B009B189B009622920042439B183F
:10232000CB180233221C1A80BB68DB891C00BD4914
:10233000BA69F86913009B009B189B0096229200D3
:1023400042439B18CB1804331C60BB681B8A1C00DB
:10235000B449BA69F86913009B009B189B00962248
:10236000920042439B18CB1808331C60BB685A6824
:10237000BB68DB891900BB694B43B968097A4B43D9
:102380001800BB681B881900BB681B7A4B43F969AE
:102390004B43B968098A4B43C318D118A148BA699D
:1023A000FC6913009B009B189B00962292006243DD
:1023B0009B18C3180C3319609A49BA69F86913005D
:1023C0009B009B189B009622920042439B18CB18BF
:1023D000103301221A80BB690133BB61BB685B8982
:1023E0001A00BB699A4200DD74E7FB690133FB61A7
:1023F000BB689B891A00FB699A4200DD67E709E127
:10240000894B9847894B1800894B984702E1BB6874
:10241000002B10D0BB685B69802292041343180024
:10242000834B9847BB689B69982292051343180019
:102430007F4B9847EEE080239B0418007C4B984725
:102440007C4B18007A4B9847E4E0CF235B4218009E
:10245000774B9847DEE00023FB6175E00023BB610A
:1024600069E0BA6913009B009B189B00FA699621EA
:1024700089004A439A186B4BD3187B617B691B8A8E
:102480001A000123134052D06B4B1800684B984739
:102490007B69DB689B029B0A80225204134318006D
:1024A000634B9847BB681B881A00BB681B7A534371
:1024B0005B02624A1A40BB685B88DB05DB0D134395
:1024C000E722D20413431800594B98477B695B6895
:1024D0005B025B4A1A407B699B68DB05DB0D13439B
:1024E0008022120513431800514B9847554B180092
:1024F0004F4B98477B695B68BA6953431B01DB0309
:10250000514A1A407B699B68F9694B431B011900CA
:102510004E4B0B4013438022D20513431800444B0B
:10252000984784239B051800414B984700E0C0461C
:10253000BB690133BB61BB685B891A00BB699A4206
:102540008FDCFB690133FB61BB689B891A00FB6967
:102550009A4200DD82E75DE0374B1800344B984724
:102560007B68DB689B029B0A80225204134318009D
:102570002F4B9847BB681B881A00BB681B7A5343D4
:102580005B022E4A1A40BB685B88DB05DB0D1343F8
:10259000E722D20413431800254B98477B685B68F9
:1025A0005B02274A1A407B689B68DB05DB0D1343FF
:1025B00080221205134318001D4B9847214B180029
:1025C0001B4B98477B6800229B5E1B01DB031E4A66
:1025D0001A407B6802215B5E1B011C490B401343C0
:1025E0008022D20513431800114B984784239B0582
:1025F00018000F4B98470DE000200D4B9847FF2324
:102600005B4218000A4B9847114B984702E0114B68
:102610009847C04600231800BD4609B090BDC0468B
:10262000E47E0300A42000207921000000FFFFFFCA
:1026300049220000070000260700000500FE0700F1
:1026400000FE03000100001F0000F83FF07F0000C3
:102650008D2100004106000080B584B000AF786095
:102660000E23FB1800221A807B685B781B021AB2CB
:102670007B681B781BB213431AB27B685B881BB262
:1026800013431AB20E23FB181A80044A0E23FB18B8
:102690001B885380C046BD4604B080BD000C00407E
:1026A00080B584B000AF0200FB1D1A700023FB60F0
:1026B000FB1D1B782022134001D000231BE0FB1DD3
:1026C0001B78C0221340402B0BD002DC002B05D01E
:1026D00010E0602B08D0802B09D00BE0084BFB608A
:1026E00008E0084BFB6005E0074BFB6002E0074B8E
:1026F000FB60C046FB681800BD4604B080BDC04604
:1027000000440041804400410045004180450041B3
:1027100080B586B000AF786000237B611223FB1880
:1027200000221A801023FB1800221A807B68002BDD
:1027300002D101235B427CE07B681B7818003F4B91
:1027400098470300FB60FB68002B02D101235B422A
:102750006FE07B681B781A001F23134001229A4008
:1027600013007B611223FB187A691A807B691A0CAB
:102770001023FB181A8000237B617B685B78012B98
:1027800008D17B68DB781A067B6913432C4A134314
:102790007B6123E07B689B781A004023134001D1C2
:1027A000002201E080239A027B689B781900202395
:1027B0000B4001D1002301E08023DB021A437B6838
:1027C0009B78190010230B4001D1002301E08023E6
:1027D000DB0313431A007B6913437B61FB681B68AF
:1027E0007A68927852B2D2B2D209D2B211007A6823
:1027F000127810001F22024091400A001A43FB6821
:102800001A601223FB181B887A6913437B61122319
:10281000FB181A887B691A43FB689A621023FB181D
:102820001A887B691343802212061A43FB689A6256
:1028300000231800BD4606B080BDC046A12600009A
:102840000000015080B584B000AF0200FB1D1A707B
:10285000BB1D0A1C1A70FB1D1B781800104B9847F3
:102860000300FB60FB68002B02D101235B4213E0F5
:10287000BB1D1B78012213405A1E9341DBB2BB6083
:10288000FB1D1B781F221340BA689A401300BB60DF
:10289000FB68BA681A6100231800BD4604B080BD09
:1028A000A126000080B582B000AF7860C0467B688A
:1028B0005A1E7A60002BFAD1C046BD4602B080BDD8
:1028C00080B500AF094B1800094B9847074B18001B
:1028D000074B9847054B1800054B9847054B1800C8
:1028E000034B9847C046BD4680BDC046A086010048
:1028F000A52800007011010080B500AF034B18003F
:10290000034B9847C046BD4680BDC046607F03006C
:102910005926000080B582B000AF78607B681A68E5
:1029200002210A431A6001231800BD4602B080BD8F
:1029300080B584B000AFF860B9607A601A00FB1C03
:102940001A70FB68BA681A60FB687A685A60FB689C
:10295000FA1C12781A7301231800BD4604B080BD1A
:1029600080B582B000AF78607B681B7EDBB21A0056
:10297000042313405A1E9341DBB21800BD4602B037
:1029800080BD000080B584B000AF78600A00BB1C39
:102990001A80BB1C1B88DB05DA0D7B689A62C04677
:1029A0007B6818000A4B984703001A000123534024
:1029B000DBB2002BF4D17B689A6A0F23FB181A70E4
:1029C0000F23FB181B781800BD4604B080BDC0461D
:1029D0006129000030B5214A4B0087B05B08934263
:1029E0001EDD1F4A934205DD02000B0003F0DAF8FA
:1029F00007B030BD02AA00F035F803231840049A4E
:102A0000059B01281ED0022811D000281FD0029853
:102A1000039900F03FFA80231B069C466144E7E7D8
:102A2000002300220093002300F0CAFFE0E7012406
:102A300002980399009400F0C3FF80231B069C4674
:102A40006144D5E70298039900F024FAD0E7012405
:102A500002980399009400F0B3FFC9E7FB21E93F16
:102A6000FFFFEF7FF0B54E464546DE465746E0B5E0
:102A7000D44B4C008FB09046894664089C4200DCE1
:102A800087E0D14B9C4222DCD04A002900DCBFE128
:102A9000CF4B03F087F8CE4B06000F009C4200D1CD
:102AA00094E0CC4ACC4B03F07DF802000B00414689
:102AB00030000A604B60390003F074F8C64BC54A19
:102AC00003F070F8434601259860D9606BE0C34B72
:102AD0009C4200DC97E0C24B9C426CDCC14A23154F
:102AE00092469A4451460905631A19001D000400D4
:102AF00003F06EFB03F0A0FB02000B002000290096
:102B00000892099303F04EF80022B74B02F0CAFD79
:102B10000F00060003F05CFB03F08EFB04000D00C9
:102B200002000B00300039000A940B9503F03AF8CC
:102B30000022AD4B02F0B6FD002200230C900D9157
:102B400001F080FA002800D181E10023002220005A
:102B5000290001F077FA434243410133A34A414639
:102B60000192022208A80092524600F0ADFA4B46AC
:102B70000500002B17DA802243461206944642468F
:102B80005B68454263445360D36842466344D36004
:102B900009E00B00020041460A604B60002200235E
:102BA00000258A60CB6028000FB03CBC9046994657
:102BB000A246AB46F0BD0B00020002F0F3FF434615
:102BC00000259860D96018605960ECE7D322824BE9
:102BD000520502F0E7FF864A864B0D00040002F022
:102BE000E1FF02000B00414620000A604B60290013
:102BF00002F0D8FF7F4B7E4A02F0D4FF4346012506
:102C00009860D960CFE700F08BFF7B4A7B4B0600D2
:102C10000F0002F047FD0022794B02F033F903F078
:102C2000D7FA050003F008FB684A694B0490059148
:102C300002F038FD02000B003000390002F0B2FF54
:102C4000644A06000F0004980599634B02F02AFDC0
:102C5000029003911F2D33DC6B1E6A4A9B009B5828
:102C60009C422DD002000B003000390002F09AFF88
:102C70000B008A460200414683460A604B605A4672
:102C800053463000390002F08DFF029A039B02F098
:102C900089FF44460B000200A260E3604B46002B14
:102CA00000DB80E75B46236080231B0653446360A0
:102CB00080231B069C466144A060E1606D4272E780
:102CC000029A039B3000390002F06CFF0B008A4629
:102CD000020041460A604B6053465B0024155B0DC1
:102CE0008346E31A102BCADD04980599D3223A4B88
:102CF000520502F0D7FC0290039102000B00300055
:102D0000390002F04FFF0690079102000B003000DF
:102D1000390002F047FF029A039B02F043FF0600CE
:102D20000F0004980599324A324B02F0BBFC320086
:102D30003B0002F037FF069E079F02000B003000A9
:102D400039000292039302F02DFF0B008A46020025
:102D500041460A604B6053465B005B0D8346E41AB4
:102D600006960797312C8ADD04980599B822214BE5
:102D7000920502F097FC03000C00020002930394FA
:102D800030000B00390002F00DFF02000B000600BE
:102D90000F000698079902F005FF029A039B02F0C4
:102DA00001FF194A0290039104980599174B02F00C
:102DB00079FC029A039B02F0F5FE02000B000292DE
:102DC000039351E7FB21E93F7BD9024000004054C7
:102DD000FB21F93F3163621A61B4D03DFB213941D7
:102DE000FFFFEF7FEAFBFFFF00007041E47F03007D
:102DF0007370032E8A19A33B83C8C96D305FE43F0B
:102E00000000E03F647F0300C14920259A837B399D
:102E10001B4B02F037F81A4B06000F009C4218D0EB
:102E2000184A194B02F02EF802000B004146300000
:102E30000A604B60390002F0B5FE124A124B02F0F4
:102E400021F8012543466D429860D960ABE6032323
:102E500084E6D3220C4B520502F014F80B4A0C4BBB
:102E600004000D0002F00EF802000B0041462000A5
:102E70000A604B60290002F095FE044A044BDEE72D
:102E8000FB21F93F3163621A61B4D03D7370032EA8
:102E90008A19A33BF0B54746CE4680B587B000926D
:102EA0000193754B4F00814688467F089F4263DC43
:102EB00003F08EF9002800D1DAE04A46434648463E
:102EC000414602F0EFFB04000D006C4A6C4B02F02F
:102ED000E9FB6C4A6C4B01F0D5FF22002B0002F09D
:102EE000E1FB6A4A6A4B02F05DFE22002B0002F011
:102EF000D9FB684A684B01F0C5FF22002B0002F0A5
:102F0000D1FB664A664B02F04DFE22002B0002F018
:102F1000C9FB644A644B01F0B5FF22002B0002F0AC
:102F2000C1FB029003910022604B2000290002F0B7
:102F3000B9FB029A039B06000F002000290002F053
:102F4000B1FB009A019B04000D004846414602F087
:102F5000A9FB02000B002000290002F023FE020062
:102F60000B003000390002F01DFE02000B000020B3
:102F70004F4902F017FE70E002000B0002F092FBD6
:102F800004000D003D4A3E4B02F08CFB3D4A3E4B97
:102F900001F078FF22002B0002F084FB3B4A3C4BFF
:102FA00002F000FE22002B0002F07CFB394A3A4B73
:102FB00001F068FF22002B0002F074FB374A384B07
:102FC00002F0F0FD22002B0002F06CFB354A364B7C
:102FD00001F058FF2B00220002F064FB354B0290F9
:102FE00003919F429FDD344B00229F423ADC3349DC
:102FF00000207B182E4916001F0002F0D3FD04901C
:1030000005910022294B2000290002F04BFB3200E1
:103010003B0002F0C7FD029A039B06000F00200050
:10302000290002F03FFB009A019B04000D00484676
:10303000414602F037FB02000B002000290002F09D
:10304000B1FD02000B003000390002F0ABFD0200C0
:103050000B000498059902F0A5FD07B00CBC904642
:103060009946F0BD164B002604920593154FC8E70C
:1030700000200F49F1E7C046FFFF3F3ED43888BE2D
:10308000E9FAA8BDC4B1B4BD9EEE213EAD529C800C
:103090004F7E923E9015CB19A001FA3E7751C11692
:1030A0006CC1563F4C5555555555A53F0000E03F66
:1030B0000000F03F3233D33F0000E93F0000E0FF63
:1030C0000000E73F0000D23FF0B5DE464E464546E1
:1030D0005746E0B5A34CA544079119001400A49AE3
:1030E0000993A14B9200D2580B000390013BE01EC4
:1030F00018211D0016000692029300F0A7FEC3439C
:103100000200DB171A401300110001330B929A00E2
:103110009B1ADB001B1904934C1B761918D4A59B32
:10312000A5009C46361922AF6544013607E02868A1
:1031300003F082F8013403C70435B44208D0002CF0
:10314000F5DA00200021013403C70435B442F6D17A
:10315000069B002B01DA00F001FC72AB19008B46D4
:1031600022AA9146069A08930132D2009344039A08
:103170009A469046029BDB00994408339844029B90
:10318000002B00DA8DE24C4600260027039D2268C2
:10319000636803CD02F086FA02000B0030003900AC
:1031A00001F070FE083C06000F004545EFD1534684
:1031B000C0C39A4608239C46E144DA45DFD1069A0B
:1031C0006A4913008C4663449B000EA8190084468C
:1031D00061440D910399043B8B4663440C93099B16
:1031E0000092DB009B44009A0898D30019000A93D0
:1031F0008C46030063441E685F68002A34DD0EAB12
:10320000994613005A4A804694466344DB0098442A
:1032100070AB9A460022574B3000390002F042FA58
:1032200002F0D6FF03F008F80022534B04000D0013
:1032300002F038FA02000B003000390002F0B2FC54
:1032400002F0C6FF4B4601C39946434620001A6868
:103250005B68290001F016FE08235B429C46E044AF
:1032600006000F00D045D5D1049B30001A0039006C
:10327000994600F0F1FCFF2300229B0504000D009D
:1032800002F010FA00F050FC00223C4B02F00AFA67
:1032900002000B002000290002F084FC0D00040055
:1032A00002F096FF804602F0C7FF02000B002000EC
:1032B000290002F077FC0F0049460600002900DCD7
:1032C00010E1009B18205A1E92000EAB9B58401A2A
:1032D0001D000541A84485405D1B0EAB9D50172283
:1032E000521A1541002D00DC7DE001239C46009B15
:1032F000E044002B48DD0E9C002C00D14BE3012262
:103300000023002180204004041B0EA84450009993
:10331000914218DD92000EA989580EAC05910598CE
:1033200017490233081AA050009A9A420BDD0EAAE0
:103330009446009A9B009000634460441A688A1A7D
:1033400004C38342FAD1049B0124002B21DC022D0B
:1033500049D132003B0000200A4902F023FC06005C
:103360000F0032E094FDFFFF30810300FFFFFF3FBD
:10337000FFFFFF1F0000703E000070410000204072
:10338000FFFFFF000000F03F049B0024002B00DC47
:1033900092E2049B012B00D17BE2022B09D1009B1E
:1033A0000EA95A1E92000EAB9B5805939B029B0AD6
:1033B0008B50022D17D132003B000020BF4902F094
:1033C000F1FB06000F00002C0DD0049A0020BB4931
:1033D00000F042FC02000B003000390002F0E2FB7A
:1033E000022506000F00002300223000390000F003
:1033F00029FE009B002800D162E206995A1E9142E4
:1034000010DCAF490D988C460EA963448C46002110
:103410009B0063441C68043B21438342FAD100298A
:1034200000D084E0069B0EAA013B9B00D358002BE2
:1034300000D07CE201220C9B043B59680132002938
:10344000FAD000990B008C460133624405929342F6
:1034500042DC0B9A9446A59A63449246099A9B00D3
:10346000944622AA90469A44009B089A6344DB0043
:1034700098440A9B94469946059BE144DB006344CB
:1034800000935346186802F0D7FE4346186059600F
:10349000029B002B23DB444600260027039D226865
:1034A000636803CD02F0FEF802000B003000390023
:1034B00001F0E8FC083C06000F005D45EFD14B46EB
:1034C0009E60DF6004239C460433E2449C46009BDC
:1034D000E144E0449945D4D1059B009383E600265E
:1034E0000027ECE7049B002B06D1009B0EAA013BB2
:1034F0009B00D558ED15F5E60022724B30003900DF
:1035000000F0C4FD0025002800D16CE701239C4693
:10351000009BE0440225002B00DDECE632003B007E
:103520000020664902F03EFB06000F005BE74346C1
:103530000993049B0EA8183B190004939300C358E9
:1035400003950292002B0FD15D48130084460EA80C
:10355000634484469B006344043B5868013A18392D
:103560000028F9D002920491049A0020534900F0F7
:1035700073FB029B04000D00002B00DAD9E10EAAB8
:1035800094469E00DB0066449C46089AB04662441E
:1035900016000493009270AF4346186802F04CFE88
:1035A00022002B0002F07EF8474B30607160002251
:1035B0002000290002F076F804235B429C46083E76
:1035C00004000D00E044BE42E6D100239A464AAB17
:1035D0009946069B05969B465B4600260027002BD6
:1035E00021DB8020394B009D9846C00538490026D4
:1035F0000027002408E008239C460835E044544591
:1036000011DC4346186859682A686B6802F04AF86A
:1036100002000B003000390001F034FC01340600D8
:103620000F00A345E7DA5346DB004B441E605F60A2
:1036300001239C46009B059A083BE24400939A4272
:10364000CAD1A49B022B00DD7AE0002B42DC1CD106
:10365000049B00274B441E00002448AD3268736869
:103660003800210001F00EFC083E07000C00B542B6
:10367000F4D1039B002B03D080231B069C4664449B
:103680003A00230007990A604B600720099B184005
:103690009B239B009D443CBC90469946A246AB466A
:1036A000F0BD534600260027C0C39A4608239C4617
:1036B000E144DA4500D062E581E5C0460000F03F14
:1036C000FFFFFF3F0000E03F0000703EF08003007E
:1036D000FB21F93F049B00204B441E00002148AF12
:1036E00032687368083E01F0CDFBBE42F8D1039BFF
:1036F000002B00D1B8E08023079A1B06CB1810607E
:1037000053600B0002004A984B9902F04BFA029B5F
:10371000002B0BDD01264CAF0CCF01F0B3FB029B5D
:103720000136B342F8DA039B002B03D080231B063B
:103730009C4661440B00020007998A60CB60A4E7B5
:10374000A49B032BA1D1029B002B00DC20E1994A12
:10375000049B94464B441E685F68029B63449B46EF
:10376000DB004B44984648AB9A4643465C681B686E
:103770001800210032003B000090019101F082FB13
:1037800004000D0002000B000098019902F00AFAF3
:103790003B00320001F076FB43469860D9601C6024
:1037A0005D6008235B429C46E04426002F00C24532
:1037B000DBD1029B012B00DCEAE0049BC8464B44B2
:1037C0001E685F685B46DB009B46D84443465C68E6
:1037D0001B681800210032003B000090019101F0AD
:1037E00051FB04000D0002000B000098019902F04B
:1037F000D9F93B00320001F045FB43469860D9609F
:103800001C605D6008235B429C46E04426002F005C
:10381000C145DBD15D460027002408354D444CAE40
:103820002A686B683800210001F02CFB083D070076
:103830000C00AE42F4D1039B002B00D191E080211B
:10384000079A4A9B090613604B468C465B686444A2
:10385000634453604B469B68176193604B46DB683B
:1038600054616344D36010E702000B00079C2260A0
:1038700063600B0002004A984B9902F093F9029B97
:10388000002B00DD46E70B00020007998A60CB6041
:10389000FBE6009B0EA95A1E92000EAB9B580593A7
:1038A0005B025B0A8B5084E5009A01339A4276D121
:1038B000049B002B00DD6CE5022D00D093E52DE686
:1038C000994643460993049B30005A4239000395B8
:1038D00000F0C2F90022384B04000D0000F0D6FBC6
:1038E000002830D0354B00222000290001F0DAFEFC
:1038F00002F06EFC4A460600970002F09DFC002292
:103900002D4B01F0CFFE02000B002000290002F039
:1039100049F902F05DFC0EAAD0514A46049B0132DF
:1039200018330292049393000EAAD6501CE601228B
:1039300087E5A49B022B25DC002B38DC00D0A4E615
:103940000027002495E64B46200029009E0002F047
:103950003FFC0EAB98514B46029305E672AB0893C1
:103960002DE407994A9A4B9B0A604B604B469A6834
:10397000DB68009201938A60CB603A0023000A6101
:103980004B6182E64AAB9946A49B032B00D07CE6B0
:10399000002700244FE7009A0123012A88DD9900BF
:1039A0000EAA5458002C00D17EE75A1CAAE400202D
:1039B00000219CE6FFFFFF1F000070410000703EE9
:1039C000F0B5CE46474680B587B000920193464A8F
:1039D0004B00814688465B08934205DC02F0F8FB09
:1039E0004146031E484666D04A464346484641463D
:1039F00001F058FE04000D0002000B00484641464D
:103A000001F050FE394A3A4B06000F002000290011
:103A100001F048FE374A384B02F0C4F822002B0070
:103A200001F040FE354A364B01F02CFA22002B0003
:103A300001F038FE334A344B02F0B4F822002B0078
:103A400001F030FE314B324A01F01CFA0E9B02901D
:103A50000391002B34D00098019900222D4B01F0E6
:103A600021FE029A039B049005913000390001F079
:103A700019FE02000B000498059902F093F8220049
:103A80002B0001F00FFE009A019B02F08BF8224AF6
:103A900004000D00214B3000390001F003FE02004C
:103AA0000B002000290001F0EDF902000B00484650
:103AB000414602F077F807B00CBC90469946F0BD3D
:103AC00002000B002000290001F0ECFD124A134B0C
:103AD00002F068F832003B0001F0E4FD4A4643463C
:103AE00001F0D0F9E7E7C046FFFF3F3E7CD5CF5A53
:103AF0003AD9E53DEB9C2B8AE6E55A3E7DFEB1576F
:103B0000E31DC73ED561C119A0012A3F1111813FB4
:103B1000A6F810110000E03F495555555555C53FD1
:103B200049004B0819007047454AF8B55746924678
:103B30004B005B0D9A444E464546DE465246E0B584
:103B40000C0005000E0089460700132A22DC002A1B
:103B500047DB52463B4B134198460B00424613400D
:103B6000034311D0384A394B01F08CF9002200236D
:103B700000F082FA002805D0002C41DB4E46434677
:103B800000279E43380031003CBC90469946A2462F
:103B9000AB46F8BD5246332A08DD8023DB009A4548
:103BA000F2D102000B0001F06DF9EDE7284A9446CE
:103BB000012263445242DA4093460242E4D0224A50
:103BC000224B01F05FF90022002300F055FA002893
:103BD000D8D0002C1ADB5B464E469F43380031009C
:103BE000D2E7194A194B01F04DF90022002300F0E9
:103BF00043FA0028C6D0002C16DB00270026C1E7B8
:103C0000802352465B0313419944B7E75346142B74
:103C100012D03423524601279B1A9F407F19AF428E
:103C20009B415B429944D6E7640064082543002722
:103C3000002DA7D0074EA5E7133B9C46E144CAE7F9
:103C400001FCFFFFFFFF0F009C7500883CE4377EFE
:103C5000EDFBFFFF0000F0BF4B0070B55B0D1400E3
:103C60000A00002B1AD14B005B08034315D0002239
:103C7000224B01F017FD224B0A009C4222DB4B0035
:103C80005B0D363B1F4DE318AB4220DC002B0DDDF6
:103C90001D4C1B0522401A43110070BD1B4DAB4249
:103CA000F0D102000B0001F0EDF8F6E71D0035350C
:103CB00018DA174B02009C420ADC0B001548164923
:103CC00000F032F8134A144B01F0ECFCE5E7020077
:103CD0000B001248124900F027F8104A104B01F06F
:103CE000E1FCDAE7084C363322401B051343190088
:103CF00000220C4B01F0D6FCCFE7C0460000504339
:103D0000B03CFFFFFE070000FFFF0F80FF07000031
:103D100050C3000059F3F8C21F6EA5019C750088BE
:103D20003CE4377E0000903C30B54A00DB0FDB07F7
:103D300052081A43110030BD002243088B4274D34D
:103D400003098B425FD3030A8B4244D3030B8B429C
:103D500028D3030C8B420DD3FF22090212BA030CA5
:103D60008B4202D31212090265D0030B8B4219D386
:103D700000E0090AC30B8B4201D3CB03C01A5241A6
:103D8000830B8B4201D38B03C01A5241430B8B42EE
:103D900001D34B03C01A5241030B8B4201D30B03D7
:103DA000C01A5241C30A8B4201D3CB02C01A5241FE
:103DB000830A8B4201D38B02C01A5241430A8B42C1
:103DC00001D34B02C01A5241030A8B4201D30B02AA
:103DD000C01A5241CDD2C3098B4201D3CB01C01AC4
:103DE000524183098B4201D38B01C01A52414309CE
:103DF0008B4201D34B01C01A524103098B4201D3BC
:103E00000B01C01A5241C3088B4201D3CB00C01A28
:103E1000524183088B4201D38B00C01A52414308A0
:103E20008B4201D34B00C01A5241411A00D20146C5
:103E3000524110467047FFE701B5002000F0F0F84E
:103E400002BDC0460029F7D076E7704703460B4312
:103E50007FD4002243088B4274D303098B425FD383
:103E6000030A8B4244D3030B8B4228D3030C8B42AF
:103E70000DD3FF22090212BA030C8B4202D3121295
:103E8000090265D0030B8B4219D300E0090AC30B6A
:103E90008B4201D3CB03C01A5241830B8B4201D317
:103EA0008B03C01A5241430B8B4201D34B03C01A00
:103EB0005241030B8B4201D30B03C01A5241C30A78
:103EC0008B4201D3CB02C01A5241830A8B4201D3E9
:103ED0008B02C01A5241430A8B4201D34B02C01AD3
:103EE0005241030A8B4201D30B02C01A5241CDD278
:103EF000C3098B4201D3CB01C01A524183098B42C3
:103F000001D38B01C01A524143098B4201D34B01AB
:103F1000C01A524103098B4201D30B01C01A52410E
:103F2000C3088B4201D3CB00C01A524183088B4295
:103F300001D38B00C01A524143088B4201D34B007E
:103F4000C01A5241411A00D20146524110467047F0
:103F50005DE0CA0F00D04942031000D340425340F5
:103F600000229C4603098B422DD3030A8B4212D3B5
:103F7000FC22890112BA030A8B420CD389019211E7
:103F80008B4208D3890192118B4204D389013AD024
:103F9000921100E08909C3098B4201D3CB01C01AF9
:103FA000524183098B4201D38B01C01A524143090C
:103FB0008B4201D34B01C01A524103098B4201D3FA
:103FC0000B01C01A5241C3088B4201D3CB00C01A67
:103FD000524183088B4201D38B00C01A5241D9D27F
:103FE00043088B4201D34B00C01A5241411A00D200
:103FF0000146634652415B10104601D34042002BFC
:1040000000D54942704763465B1000D3404201B57A
:10401000002000F005F802BD0029F8D016E770472F
:104020007047C0468446101C62468C46191C634685
:1040300000E0C0461FB501F0D3FA002801D40021EA
:10404000C8421FBD10B501F02DFA4042013010BD2D
:1040500010B501F0C5FA002801DB002010BD0120D9
:1040600010BDC04610B501F0BBFA002801DD0020EC
:1040700010BD012010BDC04610B501F04DFA00285A
:1040800001DC002010BD012010BDC04610B501F0BC
:1040900043FA002801DA002010BD012010BDC046FF
:1040A0008446081C6146FFE71FB500F09DFB002811
:1040B00001D40021C8421FBD10B500F02FFB4042C3
:1040C000013010BD10B500F08FFB002801DB00208F
:1040D00010BD012010BDC04610B500F085FB0028C2
:1040E00001DD002010BD012010BDC04610B500F05C
:1040F0003BFB002801DC002010BD012010BDC046A4
:1041000010B500F031FB002801DA002010BD0120BD
:1041100010BDC046F0B5CE46474615042D0C2E0006
:1041200080B50704140C3F0C9946030C7E435D4395
:10413000674363437F19340CE4199C46A54203D9B5
:1041400080235B029846C4444B46514343433604A4
:10415000360C250C24046544A4195918491920006B
:104160000CBC90469946F0BDF0B5C6464E024702DB
:10417000760A7B0A4400C50FF7004800984600B550
:10418000240E2A00DB00000EC90FBC468D4267D00A
:10419000221A002A00DCA5E000283AD1002F00D125
:1041A00093E0511E002900D0BCE00124DB1B5A0122
:1041B00046D59B019E09300002F0D2F805388640B2
:1041C000844200DD9DE0041B320020200134E240E7
:1041D000041BA64033005E1EB341002413435A075C
:1041E00004D00F221A40042A00D004335A0129D5E2
:1041F0000134FF2C00D181E02A009B015B0AE4B26C
:104200005B02E405580AD2072043104304BC9046E1
:10421000F0BDFF2CE3D080213800C9040843844658
:104220001B2A00DD82E020206146D140821A6046D0
:1042300090400200501E82410A439B1A5A01B8D492
:104240005A07CED1DE082A00FF2C3AD1002E00D129
:10425000AEE08023DB0333435B025B0AFF24CFE73E
:10426000211A002952DD002831D0FF2CB7D0802040
:104270003E00C0040643B4461B2900DDAAE0202608
:104280006046C840711A66468E4031004E1EB141EC
:1042900001435B185901D3D50134FF2C00D187E0CD
:1042A000012278491A405B080B40134397E7002C22
:1042B00000D0A7E0002B00D0B6E03B1E62D1002664
:1042C000002273025B0AE4B29AE7140087E7002F2A
:1042D0004DD0481E002857D1634401245A01AFD560
:1042E0000224DDE7002A24D1621CD2B2012ADEDDDD
:1042F000DE1B720135D5FE1A0D005CE72A00002393
:104300007EE73300604A241A134068E7002963D12E
:10431000611CC8B201284EDDFF2949D063445B0807
:104320000C005CE7FF2A41D00A0079E701229B1AC2
:1043300084E7002C1DD0FF2822D08024E4045242C0
:1043400023431B2A00DD8AE01C002025D440AA1A42
:1043500093405A1E9341234362460400D31A0D0032
:1043600025E7002E00D026E700220024A9E70C0054
:1043700035E7002B4DD0D243002AEDD0FF28E0D105
:104380006346FF240D002AE7FF290FD0010073E7E1
:10439000002B61D0FF24002F00D120E7802241466E
:1043A000D203114202D0164200D13B00FF2416E78F
:1043B000FF24002324E7002CEAD1002B58D0002F43
:1043C00000D10CE763445A0100D439E72E4A0C00AF
:1043D000134004E701215CE7002C1ED1002B40D0E4
:1043E000C94300290BD0FF2836D01B2947DC1C000D
:1043F0002026CC40711A8B40591E8B4123436344C5
:10440000040047E7002B18D13B1E2DD00D00FF24E0
:10441000E5E63B0004000D00E1E6FF281CD0802407
:10442000E40449422343E0E7002F00D1D7E6DE1B36
:1044300072011FD5FB1A0D00D1E6FF24002F00D119
:10444000CDE680224046D2031042AFD01642ADD115
:104450003B000D00FF24C2E66346FF24BFE60123B4
:104460007AE73B000400BAE680260022F603F0E675
:104470003B00B4E6331E00D0E2E6002221E7012330
:10448000BDE7C046FFFFFF7DFFFFFFFBF0B55746CE
:104490004E46DE464546E0B544024300C60F83B0B3
:1044A0000F1C640A1B0EB24653D0FF2B27D080226C
:1044B000E400D20414437F225242904698440023E1
:1044C00099469B467D027800FB0F6D0A000E009313
:1044D00024D0FF2846D080230021ED00DB041D43BB
:1044E0007F384746381A4F460F43BF00B94633005E
:1044F000009A874F53404A46BA5801939746002C7A
:104500004ED108239946F7339846FD3B9B467D02E2
:104510007800FB0F6D0A000E0093DAD1002D26D132
:10452000002001213300009A7A4F53404246101A6E
:104530004A460A439200BA581D009746009B2C0039
:104540009A468B465B46022B31D15346FF2100240D
:1045500038E0002C17D104239946002398460133F4
:104560009B46AFE7FF20002D0BD10221DAE72800A0
:1045700001F0F6FE431F9D4076235B42181A00218E
:10458000AFE70321ADE7200001F0EAFE431F9C40A6
:1045900076235B421B1A9846002399469B4691E777
:1045A0000C239946F3339846FC3B9B468AE7032B42
:1045B00000D1A5E05546012B00D081E00123002168
:1045C00000242B406402C905600ADB070843184336
:1045D00003B03CBC90469946A246AB46F0BD802451
:1045E0000023E403FF21EDE7FF210024EAE7012394
:1045F000591A1B2966DD019A134000210024E1E7C6
:104600008023DB031C4238D01D4251D01C4364027E
:10461000640A3300FF21D5E763016C01A3423BD25A
:104620001B260021013801251F0049005B00002FD7
:1046300001DB9C4201D81B1B2943013E002EF3D114
:104640001C00631E9C410C4301007F310029CEDD1C
:10465000630704D00F232340042B00D0043423012C
:1046600003D501002C4B80311C40FE290DDD0123B8
:10467000019AFF2113400024A4E78023DB031C439D
:104680006402640A3300FF219CE70123019AA4011C
:10469000640AC9B2134095E71B1B1A260121C2E721
:1046A000009B8B469A4600244CE76302E5D5002523
:1046B0008024E4032C436402640A009BFF2181E709
:1046C0000195C1E723002020CB40411A8C40611E98
:1046D0008C411C43630704D00F232340042B00D0DC
:1046E0000434630105D50123019A012113400024FC
:1046F00068E70123019AA401640A1340002161E7DD
:104700008023DB031C436402640A5346FF2159E7FC
:104710004081030080810300FFFFFFF770B5420076
:1047200045024E024C00C30F6D0A120E760A240E8B
:10473000C90F0120FF2A06D0FF2C03D0A24201D1CD
:10474000B54206D070BD002DFCD1FF2CFAD1002E51
:10475000F8D18B4206D00120002AF3D12800451E53
:10476000A841EFE70020EDE7F0B5420045024C021A
:10477000C30F48006D0A120E640A000EC90FFF2A0B
:104780001ED0FF2821D0002A0AD16E426E41F6B217
:1047900000280FD1002C0DD10020002D09D005E0FC
:1047A000002801D1002C01D08B4211D001215842A8
:1047B0000843F0BD002EF7D0012001390843F8E787
:1047C000002DDED002204042F3E7002CDBD0F9E7D9
:1047D0008242EBDC04DBA542E8D80020A542E8D207
:1047E0000121581E0843E4E7F0B542004D024C0099
:1047F0004602760A120EC30F6D0A240EC90FFF2A55
:1048000016D0FF2C18D0002A0AD170427041C0B2D5
:10481000002C15D0002805D0012001390843F0BD37
:10482000002C13D0994214D001205B421843F6E7C4
:104830000220002EF3D1E4E70220002DEFD1E2E7C1
:10484000002DE7D10020002EE9D0EDE7002DE9D1C1
:10485000EAE7A24206DCDFDBAE4203D80020AE422C
:10486000DAD3DCE7012049420843D8E7F8B55746D8
:104870004E464546DE46E0B54702460088467F0A7A
:10488000360EC40F002E47D0FF2E24D0FB00802709
:10489000FF041F43002399469A467F3E43465D022C
:1048A0005800DB0F6D0A000E984643D0FF283BD01E
:1048B000EB0080250022ED041D437F383618731C61
:1048C00041469B464B46614013430F2B64D87548C5
:1048D0009B00C3589F46002F42D108239946063BB0
:1048E000FF269A46DAE74146022A28D0032A00D159
:1048F000CEE0012A00D0ACE0114000200022CCB272
:104900004002D205400AE407104320433CBC9046D5
:104910009946A246AB46F8BD002F15D1042399460F
:10492000033B00269A46B9E7FF200222002DC5D09E
:104930000322C3E7002D19D100200122BEE7012484
:10494000FF220C400020DBE7380001F009FD76264D
:10495000431F9F4000237642361A99469A469DE7A8
:104960000C239946093BFF269A4697E7280001F059
:10497000F7FC431F9D4076235B42181A00229DE7F7
:1049800080200024C003FF22BAE73D005246ABE777
:104990003D0021005246A7E73B0C9C462A04120C1E
:1049A0002B0C1400604665463F043F0C7C43424399
:1049B0005D437B43270C9B18FF18BA4203D9802321
:1049C0005B029C46654424043A04240C12199301AA
:1049D0005C1EA3413F0C920E7D191A43AD01154395
:1049E0002B0104D501235E466A081D4015433200A1
:1049F0007F32002A25DD6B0704D00F232B40042BC8
:104A000000D004352B0103D53200274B80321D40E6
:104A1000FE2A94DC0124A801400AD2B20C406FE7C0
:104A20008020C003074207D0054205D12843400239
:104A3000400A4446FF2263E738434002400AFF220F
:104A40005EE70124A31A1B2B05DD0C400022002089
:104A500056E75E46CBE72A002020DA40C31A9D4085
:104A60002B005D1EAB4113435A0704D00F221A409E
:104A7000042A00D004335A0104D5012401220C4039
:104A800000203DE701249B01580A0C40002237E733
:104A900080200124C00328434002400A0C40FF222A
:104AA0002EE7C046C0810300FFFFFFF7F0B54F4679
:104AB000D64646464400C0B5C20F47024802400AE7
:104AC000844666467B0A4800C90F9A46240E1500A4
:104AD000DB00000E8946F600FF2800D18FE001219F
:104AE0004F464F403900914266D0221A002A00DC1E
:104AF0009DE000283DD1002E00D18BE0511E002901
:104B000000D0B5E001249B1B5A0144D59B019F09AD
:104B1000380001F025FC05388740844200DD96E02E
:104B2000041B3A0020200134E240041BA7403B0054
:104B30005F1EBB41002413435A0704D00F221A40C2
:104B4000042A00D004335A0127D50134FF2C00D1A8
:104B500079E001229B015B0AE4B22A405B02E40592
:104B6000580AD207204310431CBC90469946A246DF
:104B7000F0BDFF2CE0D08021C9040E431B2A7BDC52
:104B800031002020D140821A9640721E96410E4379
:104B90009B1B5A01BAD45A07D0D10122DF082A4000
:104BA000FF2C33D1002F00D1A8E08023DB033B434F
:104BB0005B025B0AFF24D1E7211A00294CDD0028A3
:104BC0002AD0FF2CB8D08020C00406431B2900DD6A
:104BD000AFE030002027C840791A8E40711E8E4108
:104BE00006439B195901D6D50134FF2C00D185E02D
:104BF00001227A491A405B080B4013439CE7002EC0
:104C000000D070E76BE73B1EC5D100227B025B0A38
:104C1000E4B2A3E714008FE7002E4DD0481E002811
:104C200057D19B1901245A01B5D50224E0E7002A87
:104C300025D1621CD2B2012A72DD9F1B7A0135D5C3
:104C4000F71A0D0064E7012200232A4086E73B00A3
:104C5000634A241A13406FE700296CD1611CC8B263
:104C600001284EDDFF2949D09B195B080C0063E742
:104C7000FF2A41D00A0081E701269B1B89E7002C0F
:104C80001CD0FF2821D08024E404524223431B2A55
:104C900000DD96E01C002025D440AA1A93405A1E3D
:104CA00093412343F31A04000D002DE7002F00D099
:104CB0002EE700220024A9E70C003DE7002B58D086
:104CC000D243002AEED0FF28E1D13300FF240D00AB
:104CD00032E7FF2910D0010078E7002B6ED0FF24C7
:104CE000002E00D128E780225146D203114203D082
:104CF0006146114200D13300FF241DE7FF24002349
:104D00002CE7002CE9D1002B63D0002E00D113E753
:104D10009B195A0100D43EE7314A0C0013400BE7BF
:104D2000002C1ED1002B2FD1002E4FD033000D00B0
:104D300002E7012655E7002C1FD1002B43D0C943C1
:104D400000290BD0FF2839D01B2944DC1C00202768
:104D5000CC40791A8B40591E8B4123439B19040088
:104D600040E7002B1AD1002E24D180270022FF0318
:104D70001BE7330004000D00DEE6FF281ED0802470
:104D8000E40449422343DFE7002E00D1D4E69F1B11
:104D90007A0100D437E7F31A0D00CDE6FF24002E88
:104DA00000D1C9E680225046D2031042A4D060460A
:104DB0001042A1D133000D00FF24BDE63300FF24D3
:104DC000BAE601236EE733000400B5E600270022AF
:104DD0001CE73300B0E60123C0E7C046FFFFFF7DBC
:104DE000FFFFFFFB70B5002830D0C317C4185C402C
:104DF000C50F200001F0B4FA9E231B1A962B0DDC80
:104E00009622D21A94402A006402640ADBB2640239
:104E1000DB05600AD2071843104370BD992B19DCDB
:104E20009922D21A002A29DD94402200144C144001
:104E3000510704D00F210A40042A00D00434620133
:104E400013D4A401640ADBB22A00E0E700220023A5
:104E50000024DCE705222100121AD140B922D21A1F
:104E60009440621E94410C43DAE7054B2A001C4033
:104E70009F23A4011B1A640ADBB2C8E72200D5E70E
:104E8000FFFFFFFBF8B54546DE4657464E460C038E
:104E9000E0B54E00C90F88460D00610A440F0C436F
:104EA000C70019035800DB0F9B464B0A510F0B43F9
:104EB000760D400D1900D200D84500D1AEE0351A6C
:104EC000002D00DCF6E000280FD1134300D1DBE019
:104ED0006B1E002B00D037E1BA1A9742BF41641A0B
:104EE0007F42E41B0126170024E0C64B9E424DD0B2
:104EF00080231B041943382D00DD07E11F2D00DD41
:104F000038E12020431B9A460B00504683409946C7
:104F100013004846EB401843030050468240501EA1
:104F20008241E9401A43BA1A611A9742A441170014
:104F300064420C1B230262D56402650A002D00D175
:104F4000DFE0280001F00CFA0300083B1F2B00DD16
:104F5000D2E020223C00D21A9D40D4409F402543FD
:104F60009E4200DDC4E09E1B731C1F2B00DDF1E0A0
:104F7000202238002900D21AD840914097402C00B6
:104F80000143781E8741DC4000260F437B0709D090
:104F90000F233B40042B05D03B1DBB42BF417F424A
:104FA000E4191F0023022CD5964B01369E4200D1F6
:104FB0009AE04546944BFF081C4060077605640262
:104FC0000743240B760D00212403230B0C0D8F4A7D
:104FD00024051C431440330523435B00ED075B08A5
:104FE0002B43380019003CBC90469946A246AB467C
:104FF000F8BD6446044300D111E2040067467B0714
:10500000C6D145466007FF080743E4087D4B9E4232
:1050100030D024037605240B760DD4E7331A9A4654
:10502000002B78DD002831D076488642AED0802033
:10503000000401435346382B00DCE9E00A43511ECB
:105040008A410021D219BA42BF4109197C42170096
:105050000C192302D3D56B4B01369E4200D13AE1A5
:105060000120694B1C407B0807401F43E0070743B2
:1050700064088BE723003B4300D1CBE1802212037D
:1050800014432403240B9EE72E007FE708001043FF
:1050900000D1B4E0581E002800D0DEE0BA18BA42B1
:1050A0009B4164185B42E418170001262302A6D531
:1050B0000226D5E7002D6ED1701C4005400D012859
:1050C00000DCF9E0B81A844687428041E51A404284
:1050D0002D1A280200D489E0D71BBA4292411C1B2A
:1050E0005242A51AD84629E74546002400276AE718
:1050F000454CF61A2C4049E73D00283885400027EA
:105100002EE7380001F02CF920301DE70A43511E2C
:105110008A41002107E7002B00D0F3E0701C430513
:105120005B0D012B00DCADE0364B984200D1D1E0A5
:10513000BA18BA42BF4164187F42E419E70752081F
:1051400017436408060021E72E48854200D193E00A
:105150001D00D0E629001F3EF140202B00D18DE03C
:105160004022D31A9D402F437D1EAF4100240F43A0
:10517000002644E72B000800203BD8400300202DE8
:1051800000D17DE04020451BA9400A43511E8A41C1
:1051900000211A43C7E6002E50D01A4EB04257D015
:1051A00080266B429946360434434B46382B00DD4B
:1051B000D6E01F2B00DD35E12026F51A2600AE4093
:1051C000B2463E00DE40AC46350056462E436546AC
:1051D000AF407D1EAF41DC403743D71BBA429241FE
:1051E0000C1B5242A41A0600D846A3E66446674642
:1051F0002C4300D0A2E600250026002706E71E006B
:10520000C4E6C046FF070000FFFF7FFFFFFF0F80DF
:105210001F2B63DC2020C31A080098409C4683465D
:1052200053461000D84003005846184363469A403E
:10523000531E9A4153460243D94003E726003E439A
:1052400006D0EB439946002BC7D0944EB042ACD168
:105250000C0017000600D84698E6904B9A450BD0F4
:105260008246E7E6002800D09EE01800104300D1F7
:10527000E9E01C001700D846884E87E6002572E753
:10528000002182E723003B43002E00D0ABE0002B3F
:1052900000D1E7E00B00134300D177E6BA18BA4219
:1052A000BF4164187F42E419230200D4F2E07C4B32
:1052B00017001C40060069E620003843002ED1D1BB
:1052C00000285BD11C00144300D1A8E01C0017008B
:1052D000D8465BE606000024002797E650460B0000
:1052E0002038C34099465346202B00D195E04023F7
:1052F00050461B1A99400A43511E8A414B460021D1
:105300001A439FE6002E30D126003E4367D0DB4390
:105310009A46002B1CD0614EB04260D05346382BC9
:1053200000DD96E01F2B00DD9FE02026F31A26000B
:105330009E409C46B34653463E00DE4033005E46E8
:105340001E4363469F407B1E9F415346DC403743CC
:10535000BF189742924164185242A418060078E69A
:1053600027437C1EA741002437E74C4EB04236D07D
:1053700080265B4236049A463443CFE71800104338
:1053800000D103E6B81A84466745AD41E01A6D4284
:10539000401B050200D42CE6D71BBA4292411C1BCD
:1053A0005242A41AD846F1E51800104300D163E731
:1053B000F808670707438020E4080003044208D088
:1053C000DD08054205D1D208590711430F002C0012
:1053D000D8467B0FE4001C43FF00304ED6E50C009E
:1053E00017000600D2E5002B38D00B00134300D184
:1053F00042E7F808670707438020E40800030442F7
:10540000E7D0CB080342E4D1D208490711430F008B
:105410001C00DEE700270024D5E500216BE700250E
:105420000027F3E54E462500203EF5404B462E0072
:10543000202B2DD04025ED1AAC4027437C1EA741E0
:1054400000243743C9E6802400252403134E002797
:10545000DCE527437C1EA741002479E70C001700F8
:105460000E4E93E50C00170090E556462300203EB3
:10547000F34099465346202B0ED0402356469B1BA3
:105480009C4027437C1EA7414B4600241F435FE7F7
:105490000024D2E71700B2E50024F2E7FF0700007E
:1054A000FFFF7FFFF0B54F464646D6465C00C0B5CD
:1054B0001F03DB0F9A46174B0E034D0084468046B0
:1054C000360B6D0DC90F91463F0B640D01209D42B7
:1054D00008D09C4201D0A5420BD01CBC90469946F6
:1054E000A246F0BD63463343F7D1AC42F5D13A430F
:1054F000F3D10120BE42F0D1C845EED1514507D0CD
:10550000002DEAD163461E433000461EB041E4E759
:105510000020E2E7FF070000F0B54546DE465746AB
:105520004E46E0B51F033D0B2C4F0E034C00AB461F
:105530005D008446360B640DC90F90466D0DDB0F80
:10554000BC422AD0254FBD422DD0002C0FD1304374
:105550000700814678427841C0B2002D17D15F46DE
:105560003A4314D14B460020002B0AD006E0002D10
:1055700002D15846024301D0994218D04842012135
:1055800008433CBC90469946A246AB46F0BD002875
:10559000F2D00120013B1843F3E737000743D1D095
:1055A00002204042EDE75F461743CED0F8E7AC4219
:1055B000E4DC03DA481E01210843E2E75E45DDD85A
:1055C00006D000205E45DCD20123481E1843D8E7F0
:1055D000C445D3D80020C445F6D3D2E7FF07000066
:1055E000F0B54E464546DE4657465C00E0B51F0323
:1055F000DB0F99462A4B0E034D00C90F8446360B2C
:105600006D0D8B4690463F0B640D9D4220D0244B80
:105610009C4222D0002D12D1304343424341DBB2A1
:10562000002C1FD0002B0CD04B460120013B034324
:1056300018003CBC90469946A246AB46F0BD002CF3
:1056400016D0CB4517D05B46594201230B43EFE7F9
:10565000310002230143EBD1D9E739000223114382
:10566000E6D1D7E73A43DDD100230028E0D0EAE7CE
:105670003A43E6D1E7E7A542E5DC05DBBE42E2D8E6
:1056800007D00023BE42D3D25946012301390B4330
:10569000CEE7C445D7D80023C445F5D3C8E7C046F4
:1056A000FF070000F0B557464546DE464E46E0B5DA
:1056B0000C0398464E00230B87B0070092469B468A
:1056C000760DCD0F002E6BD06D4B9E4235D08024D1
:1056D0005B46420F2404DB0014431C43C30099467D
:1056E000684BA3469C46002300276644029343462A
:1056F0001C035A00DB0F5046240B520D984600D174
:1057000076E05F4B9A426DD08023410F1B040B4320
:105710005C49E4008C461C43C300002062444146BF
:10572000B6186940721C0191944607430F2F00D9A7
:10573000B0E0554ABF00D25997465B4603439946AD
:1057400000D087E000239B46023308270293CEE770
:1057500042460192022867D0032800D10EE20128B8
:1057600000D062E100230024002299460199014003
:10577000CDB2002112030B0D120B1B051343434A3C
:10578000240513401C436400ED0764082C4348467D
:10579000210007B03CBC90469946A246AB46F0BDFE
:1057A000034399464FD05B46002B00D189E1584610
:1057B00000F0D6FD03000B3B1C2B00DD7AE11D221F
:1057C000D31A3A0001005C46DA4008398C401300D5
:1057D0008F4023439B46B94600232D4E0027361A9F
:1057E000029384E7534623432AD10024022096E7FC
:1057F0005346234320D0002C00D157E1200000F075
:10580000AFFD03000B3B1C2B00DD49E11D21CB1A32
:1058100051460200D9405346083A944093400C4305
:105820001B4A121A00207AE70125019B144C1D40E7
:105830000023002299469CE70024002201206EE705
:10584000534603206BE700239B46013304270026C1
:1058500002934CE7032381460C27029347E78022FB
:105860000023002512039946054C82E75C464B460F
:1058700002986FE75C464B46019502986AE7C0467E
:10588000FF07000001FCFFFF00820300FFFF0F8005
:105890000DFCFFFF4A464946170C1A0C1B041B0C53
:1058A00008041900000C41431500884619007D4387
:1058B0007943039589462900150045434D440295D7
:1058C00045462D0CAA46029D5544A94506D98A464F
:1058D000802149028946CA4451460391290C04910A
:1058E000414609042D04090C88462900250C24048E
:1058F0004144240C0591210041438846210079430D
:105900008A466843414650448146080C48446F43E8
:10591000824503D98021490289464F44010C8946BA
:1059200039004944029141460F0404993F0C8846CE
:105930000004C01980444146049159460F0C0904E3
:10594000090C884659438A463900514389464146E5
:105950004A435146090C8B467B43D2185A44934222
:1059600003D980235B029B46D94451460904090CA4
:105970008A46414661437C43130C12044B44524413
:10598000A1468A463C0041466C434D4351464D4436
:105990000F0C7D19A94503D980214902884644444A
:1059A000049F0399B84641448B4683458041414258
:1059B0008846514608042F04000C3F1858460299A7
:1059C00010188946904292414F44BA465242994635
:1059D0009346C244D144CB448F42BF41C245894122
:1059E00099459B41934592417F4249422D0C524239
:1059F0000F435B4213437F19FF185B463C19DB0DD5
:105A0000059A64021C43430213435D1EAB415A4690
:105A1000C00D034352021343E20156D501205A0838
:105A200003401343E207134364085A4860440028C4
:105A30004DDD5A0709D00F221A40042A05D01A1D3D
:105A40009A429B415B42E4181300E20104D5802096
:105A5000514AC00014406044504A904200DDE3E6E1
:105A60000125DB0862071A436402019B9146220B61
:105A70004405640D1D407CE6802259461203114204
:105A800008D0144206D122431203120B4546994610
:105A9000434C6EE65B461A431203120B404C68E619
:105AA00003005446283B9C400023B9E600F058FC14
:105AB0002030A6E60300283B9F400023BB469946C2
:105AC0008AE600F04DFC203074E6B446ADE70125CF
:105AD0002A1A382A06DD019B00241D4000230022DB
